{
  "_format": "hh-sol-artifact-1",
  "contractName": "GameStation",
  "sourceName": "contracts/GameStation.sol",
  "abi": [
    {
      "anonymous": false,
      "inputs": [
        {
          "indexed": true,
          "internalType": "bytes32",
          "name": "contentId",
          "type": "bytes32"
        },
        {
          "indexed": false,
          "internalType": "string",
          "name": "contentUri",
          "type": "string"
        }
      ],
      "name": "AddContent",
      "type": "event"
    },
    {
      "anonymous": false,
      "inputs": [
        {
          "indexed": true,
          "internalType": "bytes32",
          "name": "postId",
          "type": "bytes32"
        },
        {
          "indexed": true,
          "internalType": "address",
          "name": "postOwner",
          "type": "address"
        },
        {
          "indexed": false,
          "internalType": "bytes32",
          "name": "contentId",
          "type": "bytes32"
        },
        {
          "indexed": true,
          "internalType": "uint256",
          "name": "tokenId",
          "type": "uint256"
        }
      ],
      "name": "CreatePost",
      "type": "event"
    },
    {
      "inputs": [
        {
          "internalType": "string",
          "name": "_contentUri",
          "type": "string"
        },
        {
          "internalType": "uint256",
          "name": "tokenId",
          "type": "uint256"
        }
      ],
      "name": "createPost",
      "outputs": [],
      "stateMutability": "nonpayable",
      "type": "function"
    },
    {
      "inputs": [
        {
          "internalType": "bytes32",
          "name": "_contentId",
          "type": "bytes32"
        }
      ],
      "name": "getContent",
      "outputs": [
        {
          "internalType": "string",
          "name": "",
          "type": "string"
        }
      ],
      "stateMutability": "view",
      "type": "function"
    },
    {
      "inputs": [
        {
          "internalType": "bytes32",
          "name": "_postId",
          "type": "bytes32"
        }
      ],
      "name": "getPost",
      "outputs": [
        {
          "internalType": "address",
          "name": "",
          "type": "address"
        },
        {
          "internalType": "bytes32",
          "name": "",
          "type": "bytes32"
        },
        {
          "internalType": "uint256",
          "name": "",
          "type": "uint256"
        }
      ],
      "stateMutability": "view",
      "type": "function"
    }
  ],
  "bytecode": "0x608060405234801561001057600080fd5b50610855806100206000396000f3fe608060405234801561001057600080fd5b50600436106100415760003560e01c80631252cb48146100465780635cc150011461006257806393e43bbe14610092575b600080fd5b610060600480360381019061005b91906104c3565b6100c4565b005b61007c6004803603810190610077919061049a565b610268565b604051610089919061067e565b60405180910390f35b6100ac60048036038101906100a7919061049a565b61030c565b6040516100bb93929190610608565b60405180910390f35b60003390506000829050600085856040516020016100e392919061065a565b604051602081830303815290604052805190602001209050600083826040516020016101109291906105dc565b60405160208183030381529060405280519060200120905086866000808581526020019081526020016000209190610149929190610383565b50836001600083815260200190815260200160002060000160006101000a81548173ffffffffffffffffffffffffffffffffffffffff021916908373ffffffffffffffffffffffffffffffffffffffff160217905550816001600083815260200190815260200160002060010181905550826001600083815260200190815260200160002060020181905550817f543b9703d49f05c4509874240ee68b3d589b7969873ae73426f51e900ee3f3b1888860405161020792919061065a565b60405180910390a2828473ffffffffffffffffffffffffffffffffffffffff16827ff032a759ce58a8758abee062c19d10ea701d4c962c9fd892089417c5728c25d585604051610257919061063f565b60405180910390a450505050505050565b6060600080838152602001908152602001600020805461028790610744565b80601f01602080910402602001604051908101604052809291908181526020018280546102b390610744565b80156103005780601f106102d557610100808354040283529160200191610300565b820191906000526020600020905b8154815290600101906020018083116102e357829003601f168201915b50505050509050919050565b60008060006001600085815260200190815260200160002060000160009054906101000a900473ffffffffffffffffffffffffffffffffffffffff16600160008681526020019081526020016000206001015460016000878152602001908152602001600020600201549250925092509193909250565b82805461038f90610744565b90600052602060002090601f0160209004810192826103b157600085556103f8565b82601f106103ca57803560ff19168380011785556103f8565b828001600101855582156103f8579182015b828111156103f75782358255916020019190600101906103dc565b5b5090506104059190610409565b5090565b5b8082111561042257600081600090555060010161040a565b5090565b600081359050610435816107f1565b92915050565b60008083601f84011261044d57600080fd5b8235905067ffffffffffffffff81111561046657600080fd5b60208301915083600182028301111561047e57600080fd5b9250929050565b60008135905061049481610808565b92915050565b6000602082840312156104ac57600080fd5b60006104ba84828501610426565b91505092915050565b6000806000604084860312156104d857600080fd5b600084013567ffffffffffffffff8111156104f257600080fd5b6104fe8682870161043b565b9350935050602061051186828701610485565b9150509250925092565b610524816106bc565b82525050565b61053b610536826106bc565b610776565b82525050565b61054a816106ce565b82525050565b61056161055c826106ce565b610788565b82525050565b600061057383856106ab565b9350610580838584610702565b610589836107d3565b840190509392505050565b600061059f826106a0565b6105a981856106ab565b93506105b9818560208601610711565b6105c2816107d3565b840191505092915050565b6105d6816106f8565b82525050565b60006105e8828561052a565b6014820191506105f88284610550565b6020820191508190509392505050565b600060608201905061061d600083018661051b565b61062a6020830185610541565b61063760408301846105cd565b949350505050565b60006020820190506106546000830184610541565b92915050565b60006020820190508181036000830152610675818486610567565b90509392505050565b600060208201905081810360008301526106988184610594565b905092915050565b600081519050919050565b600082825260208201905092915050565b60006106c7826106d8565b9050919050565b6000819050919050565b600073ffffffffffffffffffffffffffffffffffffffff82169050919050565b6000819050919050565b82818337600083830152505050565b60005b8381101561072f578082015181840152602081019050610714565b8381111561073e576000848401525b50505050565b6000600282049050600182168061075c57607f821691505b602082108114156107705761076f6107a4565b5b50919050565b600061078182610792565b9050919050565b6000819050919050565b600061079d826107e4565b9050919050565b7f4e487b7100000000000000000000000000000000000000000000000000000000600052602260045260246000fd5b6000601f19601f8301169050919050565b60008160601b9050919050565b6107fa816106ce565b811461080557600080fd5b50565b610811816106f8565b811461081c57600080fd5b5056fea2646970667358221220b4a86e65f5a59c155c0893dba756c5020ecb20fd3efe8951132242a0cd3f464464736f6c63430008040033",
  "linkReferences": {},
  "deployedLinkReferences": {}
}